{
  "address": "0x1F2dCb35d9BF8A3029CC016d110c31B2cc2dD783",
  "abi": [
    {
      "inputs": [
        {
          "internalType": "address",
          "name": "vrfCoordinatorV2",
          "type": "address"
        },
        {
          "internalType": "bytes32",
          "name": "gasLane",
          "type": "bytes32"
        },
        {
          "internalType": "uint64",
          "name": "subscriptionId",
          "type": "uint64"
        },
        {
          "internalType": "uint32",
          "name": "callbackGasLimit",
          "type": "uint32"
        },
        {
          "internalType": "string[3]",
          "name": "tokenUris",
          "type": "string[3]"
        }
      ],
      "stateMutability": "nonpayable",
      "type": "constructor"
    },
    {
      "inputs": [
        {
          "internalType": "address",
          "name": "have",
          "type": "address"
        },
        {
          "internalType": "address",
          "name": "want",
          "type": "address"
        }
      ],
      "name": "OnlyCoordinatorCanFulfill",
      "type": "error"
    },
    {
      "anonymous": false,
      "inputs": [
        {
          "indexed": true,
          "internalType": "address",
          "name": "owner",
          "type": "address"
        },
        {
          "indexed": true,
          "internalType": "address",
          "name": "approved",
          "type": "address"
        },
        {
          "indexed": true,
          "internalType": "uint256",
          "name": "tokenId",
          "type": "uint256"
        }
      ],
      "name": "Approval",
      "type": "event"
    },
    {
      "anonymous": false,
      "inputs": [
        {
          "indexed": true,
          "internalType": "address",
          "name": "owner",
          "type": "address"
        },
        {
          "indexed": true,
          "internalType": "address",
          "name": "operator",
          "type": "address"
        },
        {
          "indexed": false,
          "internalType": "bool",
          "name": "approved",
          "type": "bool"
        }
      ],
      "name": "ApprovalForAll",
      "type": "event"
    },
    {
      "anonymous": false,
      "inputs": [
        {
          "indexed": true,
          "internalType": "address",
          "name": "from",
          "type": "address"
        },
        {
          "indexed": true,
          "internalType": "address",
          "name": "to",
          "type": "address"
        },
        {
          "indexed": true,
          "internalType": "uint256",
          "name": "tokenId",
          "type": "uint256"
        }
      ],
      "name": "Transfer",
      "type": "event"
    },
    {
      "inputs": [],
      "name": "MAX_CHANCE_VALUE",
      "outputs": [
        {
          "internalType": "uint256",
          "name": "",
          "type": "uint256"
        }
      ],
      "stateMutability": "view",
      "type": "function"
    },
    {
      "inputs": [],
      "name": "NUM_WORDS",
      "outputs": [
        {
          "internalType": "uint32",
          "name": "",
          "type": "uint32"
        }
      ],
      "stateMutability": "view",
      "type": "function"
    },
    {
      "inputs": [],
      "name": "REQUEST_CONFIRMATIONS",
      "outputs": [
        {
          "internalType": "uint16",
          "name": "",
          "type": "uint16"
        }
      ],
      "stateMutability": "view",
      "type": "function"
    },
    {
      "inputs": [
        {
          "internalType": "address",
          "name": "to",
          "type": "address"
        },
        {
          "internalType": "uint256",
          "name": "tokenId",
          "type": "uint256"
        }
      ],
      "name": "approve",
      "outputs": [],
      "stateMutability": "nonpayable",
      "type": "function"
    },
    {
      "inputs": [
        {
          "internalType": "address",
          "name": "owner",
          "type": "address"
        }
      ],
      "name": "balanceOf",
      "outputs": [
        {
          "internalType": "uint256",
          "name": "",
          "type": "uint256"
        }
      ],
      "stateMutability": "view",
      "type": "function"
    },
    {
      "inputs": [
        {
          "internalType": "uint256",
          "name": "tokenId",
          "type": "uint256"
        }
      ],
      "name": "getApproved",
      "outputs": [
        {
          "internalType": "address",
          "name": "",
          "type": "address"
        }
      ],
      "stateMutability": "view",
      "type": "function"
    },
    {
      "inputs": [],
      "name": "getChanceArray",
      "outputs": [
        {
          "internalType": "uint256[3]",
          "name": "",
          "type": "uint256[3]"
        }
      ],
      "stateMutability": "pure",
      "type": "function"
    },
    {
      "inputs": [],
      "name": "i_callbackGasLimit",
      "outputs": [
        {
          "internalType": "uint32",
          "name": "",
          "type": "uint32"
        }
      ],
      "stateMutability": "view",
      "type": "function"
    },
    {
      "inputs": [],
      "name": "i_gasLane",
      "outputs": [
        {
          "internalType": "bytes32",
          "name": "",
          "type": "bytes32"
        }
      ],
      "stateMutability": "view",
      "type": "function"
    },
    {
      "inputs": [],
      "name": "i_subscriptionId",
      "outputs": [
        {
          "internalType": "uint64",
          "name": "",
          "type": "uint64"
        }
      ],
      "stateMutability": "view",
      "type": "function"
    },
    {
      "inputs": [
        {
          "internalType": "address",
          "name": "owner",
          "type": "address"
        },
        {
          "internalType": "address",
          "name": "operator",
          "type": "address"
        }
      ],
      "name": "isApprovedForAll",
      "outputs": [
        {
          "internalType": "bool",
          "name": "",
          "type": "bool"
        }
      ],
      "stateMutability": "view",
      "type": "function"
    },
    {
      "inputs": [],
      "name": "name",
      "outputs": [
        {
          "internalType": "string",
          "name": "",
          "type": "string"
        }
      ],
      "stateMutability": "view",
      "type": "function"
    },
    {
      "inputs": [
        {
          "internalType": "uint256",
          "name": "tokenId",
          "type": "uint256"
        }
      ],
      "name": "ownerOf",
      "outputs": [
        {
          "internalType": "address",
          "name": "",
          "type": "address"
        }
      ],
      "stateMutability": "view",
      "type": "function"
    },
    {
      "inputs": [
        {
          "internalType": "uint256",
          "name": "requestId",
          "type": "uint256"
        },
        {
          "internalType": "uint256[]",
          "name": "randomWords",
          "type": "uint256[]"
        }
      ],
      "name": "rawFulfillRandomWords",
      "outputs": [],
      "stateMutability": "nonpayable",
      "type": "function"
    },
    {
      "inputs": [],
      "name": "requestObject",
      "outputs": [
        {
          "internalType": "uint256",
          "name": "requestId",
          "type": "uint256"
        }
      ],
      "stateMutability": "nonpayable",
      "type": "function"
    },
    {
      "inputs": [],
      "name": "s_tokenCounter",
      "outputs": [
        {
          "internalType": "uint256",
          "name": "",
          "type": "uint256"
        }
      ],
      "stateMutability": "view",
      "type": "function"
    },
    {
      "inputs": [
        {
          "internalType": "uint256",
          "name": "",
          "type": "uint256"
        }
      ],
      "name": "s_tokenUris",
      "outputs": [
        {
          "internalType": "string",
          "name": "",
          "type": "string"
        }
      ],
      "stateMutability": "view",
      "type": "function"
    },
    {
      "inputs": [
        {
          "internalType": "address",
          "name": "from",
          "type": "address"
        },
        {
          "internalType": "address",
          "name": "to",
          "type": "address"
        },
        {
          "internalType": "uint256",
          "name": "tokenId",
          "type": "uint256"
        }
      ],
      "name": "safeTransferFrom",
      "outputs": [],
      "stateMutability": "nonpayable",
      "type": "function"
    },
    {
      "inputs": [
        {
          "internalType": "address",
          "name": "from",
          "type": "address"
        },
        {
          "internalType": "address",
          "name": "to",
          "type": "address"
        },
        {
          "internalType": "uint256",
          "name": "tokenId",
          "type": "uint256"
        },
        {
          "internalType": "bytes",
          "name": "data",
          "type": "bytes"
        }
      ],
      "name": "safeTransferFrom",
      "outputs": [],
      "stateMutability": "nonpayable",
      "type": "function"
    },
    {
      "inputs": [
        {
          "internalType": "uint256",
          "name": "moddedRng",
          "type": "uint256"
        }
      ],
      "name": "selectFromModdedRng",
      "outputs": [
        {
          "internalType": "uint256",
          "name": "",
          "type": "uint256"
        }
      ],
      "stateMutability": "pure",
      "type": "function"
    },
    {
      "inputs": [
        {
          "internalType": "address",
          "name": "operator",
          "type": "address"
        },
        {
          "internalType": "bool",
          "name": "approved",
          "type": "bool"
        }
      ],
      "name": "setApprovalForAll",
      "outputs": [],
      "stateMutability": "nonpayable",
      "type": "function"
    },
    {
      "inputs": [
        {
          "internalType": "bytes4",
          "name": "interfaceId",
          "type": "bytes4"
        }
      ],
      "name": "supportsInterface",
      "outputs": [
        {
          "internalType": "bool",
          "name": "",
          "type": "bool"
        }
      ],
      "stateMutability": "view",
      "type": "function"
    },
    {
      "inputs": [],
      "name": "symbol",
      "outputs": [
        {
          "internalType": "string",
          "name": "",
          "type": "string"
        }
      ],
      "stateMutability": "view",
      "type": "function"
    },
    {
      "inputs": [
        {
          "internalType": "uint256",
          "name": "tokenId",
          "type": "uint256"
        }
      ],
      "name": "tokenURI",
      "outputs": [
        {
          "internalType": "string",
          "name": "",
          "type": "string"
        }
      ],
      "stateMutability": "view",
      "type": "function"
    },
    {
      "inputs": [
        {
          "internalType": "address",
          "name": "from",
          "type": "address"
        },
        {
          "internalType": "address",
          "name": "to",
          "type": "address"
        },
        {
          "internalType": "uint256",
          "name": "tokenId",
          "type": "uint256"
        }
      ],
      "name": "transferFrom",
      "outputs": [],
      "stateMutability": "nonpayable",
      "type": "function"
    }
  ],
  "transactionHash": "0xe287d99da28ad87ff32b32fd192a991503a114c1818645db553223832ce53c46",
  "args": [
    "0x6168499c0cFfCaCD319c818142124B7A15E857ab",
    "0xd89b2bf150e3b9e13446986e571fb9cab24b13cea0a43ea20a6049a85cc807cc",
    "9747",
    "500000",
    [
      "ipfs://bafkreidiszt2rp5unghfq3xfdagqcl7b6z2yc4ef6bmkbqbrqrcvoahnby",
      "ipfs://bafkreiaulh6ope6bamhyhlzgwisc3djffjuclt5zxxamsypmqrulb3kkqa",
      "ipfs://bafkreiayes7ej5kzziio3fydpjjtdygtaxckjitka5z6txfgqgkfeticaq"
    ]
  ],
  "numDeployments": 1,
  "solcInputHash": "2adaf7d171e84d7e827a99d1c9d7399f",
  "bytecode": "0x6101206040523480156200001257600080fd5b5060405162003ec638038062003ec6833981810160405281019062000038919062000621565b846040518060400160405280600f81526020017f52616e646f6d2049504653204e465400000000000000000000000000000000008152506040518060400160405280600381526020017f52494e00000000000000000000000000000000000000000000000000000000008152508160009081620000b6919062000913565b508060019081620000c8919062000913565b5050508073ffffffffffffffffffffffffffffffffffffffff1660808173ffffffffffffffffffffffffffffffffffffffff1681525050508473ffffffffffffffffffffffffffffffffffffffff1660a08173ffffffffffffffffffffffffffffffffffffffff16815250508360c081815250508267ffffffffffffffff1660e08167ffffffffffffffff16815250508163ffffffff166101008163ffffffff16815250506000600b819055508060089060036200018892919062000194565b505050505050620009fa565b8260038101928215620001d4579160200282015b82811115620001d3578251829081620001c2919062000913565b5091602001919060010190620001a8565b5b509050620001e39190620001e7565b5090565b5b808211156200020b57600081816200020191906200020f565b50600101620001e8565b5090565b5080546200021d9062000702565b6000825580601f1062000231575062000252565b601f01602090049060005260206000209081019062000251919062000255565b5b50565b5b808211156200027057600081600090555060010162000256565b5090565b6000604051905090565b600080fd5b600080fd5b600073ffffffffffffffffffffffffffffffffffffffff82169050919050565b6000620002b58262000288565b9050919050565b620002c781620002a8565b8114620002d357600080fd5b50565b600081519050620002e781620002bc565b92915050565b6000819050919050565b6200030281620002ed565b81146200030e57600080fd5b50565b6000815190506200032281620002f7565b92915050565b600067ffffffffffffffff82169050919050565b620003478162000328565b81146200035357600080fd5b50565b60008151905062000367816200033c565b92915050565b600063ffffffff82169050919050565b62000388816200036d565b81146200039457600080fd5b50565b600081519050620003a8816200037d565b92915050565b600080fd5b6000601f19601f8301169050919050565b7f4e487b7100000000000000000000000000000000000000000000000000000000600052604160045260246000fd5b620003fe82620003b3565b810181811067ffffffffffffffff8211171562000420576200041f620003c4565b5b80604052505050565b60006200043562000274565b9050620004438282620003f3565b919050565b600067ffffffffffffffff821115620004665762000465620003c4565b5b602082029050919050565b600080fd5b600080fd5b600067ffffffffffffffff821115620004995762000498620003c4565b5b620004a482620003b3565b9050602081019050919050565b60005b83811015620004d1578082015181840152602081019050620004b4565b83811115620004e1576000848401525b50505050565b6000620004fe620004f8846200047b565b62000429565b9050828152602081018484840111156200051d576200051c62000476565b5b6200052a848285620004b1565b509392505050565b600082601f8301126200054a5762000549620003ae565b5b81516200055c848260208601620004e7565b91505092915050565b60006200057c620005768462000448565b62000429565b9050806020840283018581111562000599576200059862000471565b5b835b81811015620005e757805167ffffffffffffffff811115620005c257620005c1620003ae565b5b808601620005d1898262000532565b855260208501945050506020810190506200059b565b5050509392505050565b600082601f830112620006095762000608620003ae565b5b60036200061884828562000565565b91505092915050565b600080600080600060a0868803121562000640576200063f6200027e565b5b60006200065088828901620002d6565b9550506020620006638882890162000311565b9450506040620006768882890162000356565b9350506060620006898882890162000397565b925050608086015167ffffffffffffffff811115620006ad57620006ac62000283565b5b620006bb88828901620005f1565b9150509295509295909350565b600081519050919050565b7f4e487b7100000000000000000000000000000000000000000000000000000000600052602260045260246000fd5b600060028204905060018216806200071b57607f821691505b602082108103620007315762000730620006d3565b5b50919050565b60008190508160005260206000209050919050565b60006020601f8301049050919050565b600082821b905092915050565b6000600883026200079b7fffffffffffffffffffffffffffffffffffffffffffffffffffffffffffffffff826200075c565b620007a786836200075c565b95508019841693508086168417925050509392505050565b6000819050919050565b6000819050919050565b6000620007f4620007ee620007e884620007bf565b620007c9565b620007bf565b9050919050565b6000819050919050565b6200081083620007d3565b620008286200081f82620007fb565b84845462000769565b825550505050565b600090565b6200083f62000830565b6200084c81848462000805565b505050565b5b8181101562000874576200086860008262000835565b60018101905062000852565b5050565b601f821115620008c3576200088d8162000737565b62000898846200074c565b81016020851015620008a8578190505b620008c0620008b7856200074c565b83018262000851565b50505b505050565b600082821c905092915050565b6000620008e860001984600802620008c8565b1980831691505092915050565b6000620009038383620008d5565b9150826002028217905092915050565b6200091e82620006c8565b67ffffffffffffffff8111156200093a5762000939620003c4565b5b62000946825462000702565b6200095382828562000878565b600060209050601f8311600181146200098b576000841562000976578287015190505b620009828582620008f5565b865550620009f2565b601f1984166200099b8662000737565b60005b82811015620009c5578489015182556001820191506020850194506020810190506200099e565b86831015620009e55784890151620009e1601f891682620008d5565b8355505b6001600288020188555050505b505050505050565b60805160a05160c05160e0516101005161346b62000a5b600039600081816108450152610f050152600081816108220152610a620152600081816108010152610cc5015260006107c50152600081816109220152610976015261346b6000f3fe608060405234801561001057600080fd5b50600436106101735760003560e01c806367f082b0116100de578063a22cb46511610097578063d757d02711610071578063d757d0271461044e578063da1b9e291461046c578063da898e431461048a578063e985e9c5146104ba57610173565b8063a22cb465146103e6578063b88d4fde14610402578063c87b56dd1461041e57610173565b806367f082b01461030e57806370a082311461032c57806372cf6e341461035c5780637de44c631461037a5780638e879c8a146103aa57806395d89b41146103c857610173565b80631fe543e3116101305780631fe543e31461024e57806323b872dd1461026a57806342842e0e14610286578063470cdf97146102a25780635dacf5f4146102c05780636352211e146102de57610173565b806301ffc9a71461017857806306fdde03146101a8578063081812fc146101c6578063095ea7b3146101f65780630b21a83b1461021257806318225b6414610230575b600080fd5b610192600480360381019061018d9190611f30565b6104ea565b60405161019f9190611f78565b60405180910390f35b6101b06105cc565b6040516101bd919061202c565b60405180910390f35b6101e060048036038101906101db9190612084565b61065e565b6040516101ed91906120f2565b60405180910390f35b610210600480360381019061020b9190612139565b6106a4565b005b61021a6107bb565b6040516102279190612188565b60405180910390f35b6102386107c1565b6040516102459190612188565b60405180910390f35b610268600480360381019061026391906122eb565b610920565b005b610284600480360381019061027f9190612347565b6109e0565b005b6102a0600480360381019061029b9190612347565b610a40565b005b6102aa610a60565b6040516102b791906123bd565b60405180910390f35b6102c8610a84565b6040516102d59190612483565b60405180910390f35b6102f860048036038101906102f39190612084565b610ab0565b60405161030591906120f2565b60405180910390f35b610316610b61565b60405161032391906124bb565b60405180910390f35b610346600480360381019061034191906124d6565b610b66565b6040516103539190612188565b60405180910390f35b610364610c1d565b6040516103719190612522565b60405180910390f35b610394600480360381019061038f9190612084565b610c22565b6040516103a19190612188565b60405180910390f35b6103b2610cc3565b6040516103bf9190612556565b60405180910390f35b6103d0610ce7565b6040516103dd919061202c565b60405180910390f35b61040060048036038101906103fb919061259d565b610d79565b005b61041c60048036038101906104179190612692565b610d8f565b005b61043860048036038101906104339190612084565b610df1565b604051610445919061202c565b60405180910390f35b610456610f03565b6040516104639190612522565b60405180910390f35b610474610f27565b6040516104819190612188565b60405180910390f35b6104a4600480360381019061049f9190612084565b610f2d565b6040516104b1919061202c565b60405180910390f35b6104d460048036038101906104cf9190612715565b610fd0565b6040516104e19190611f78565b60405180910390f35b60007f80ac58cd000000000000000000000000000000000000000000000000000000007bffffffffffffffffffffffffffffffffffffffffffffffffffffffff1916827bffffffffffffffffffffffffffffffffffffffffffffffffffffffff191614806105b557507f5b5e139f000000000000000000000000000000000000000000000000000000007bffffffffffffffffffffffffffffffffffffffffffffffffffffffff1916827bffffffffffffffffffffffffffffffffffffffffffffffffffffffff1916145b806105c557506105c482611064565b5b9050919050565b6060600080546105db90612784565b80601f016020809104026020016040519081016040528092919081815260200182805461060790612784565b80156106545780601f1061062957610100808354040283529160200191610654565b820191906000526020600020905b81548152906001019060200180831161063757829003601f168201915b5050505050905090565b6000610669826110ce565b6004600083815260200190815260200160002060009054906101000a900473ffffffffffffffffffffffffffffffffffffffff169050919050565b60006106af82610ab0565b90508073ffffffffffffffffffffffffffffffffffffffff168373ffffffffffffffffffffffffffffffffffffffff160361071f576040517f08c379a000000000000000000000000000000000000000000000000000000000815260040161071690612827565b60405180910390fd5b8073ffffffffffffffffffffffffffffffffffffffff1661073e611119565b73ffffffffffffffffffffffffffffffffffffffff16148061076d575061076c81610767611119565b610fd0565b5b6107ac576040517f08c379a00000000000000000000000000000000000000000000000000000000081526004016107a3906128b9565b60405180910390fd5b6107b68383611121565b505050565b600b5481565b60007f000000000000000000000000000000000000000000000000000000000000000073ffffffffffffffffffffffffffffffffffffffff16635d3b1d307f00000000000000000000000000000000000000000000000000000000000000007f000000000000000000000000000000000000000000000000000000000000000060037f000000000000000000000000000000000000000000000000000000000000000060016040518663ffffffff1660e01b81526004016108869594939291906128d9565b6020604051808303816000875af11580156108a5573d6000803e3d6000fd5b505050506040513d601f19601f820116820180604052508101906108c99190612941565b9050336007600083815260200190815260200160002060006101000a81548173ffffffffffffffffffffffffffffffffffffffff021916908373ffffffffffffffffffffffffffffffffffffffff16021790555090565b7f000000000000000000000000000000000000000000000000000000000000000073ffffffffffffffffffffffffffffffffffffffff163373ffffffffffffffffffffffffffffffffffffffff16146109d257337f00000000000000000000000000000000000000000000000000000000000000006040517f1cf993f40000000000000000000000000000000000000000000000000000000081526004016109c992919061296e565b60405180910390fd5b6109dc82826111da565b5050565b6109f16109eb611119565b82611321565b610a30576040517f08c379a0000000000000000000000000000000000000000000000000000000008152600401610a2790612a09565b60405180910390fd5b610a3b8383836113b6565b505050565b610a5b83838360405180602001604052806000815250610d8f565b505050565b7f000000000000000000000000000000000000000000000000000000000000000081565b610a8c611ea2565b6040518060600160405280600a8152602001606481526020016103e8815250905090565b6000806002600084815260200190815260200160002060009054906101000a900473ffffffffffffffffffffffffffffffffffffffff169050600073ffffffffffffffffffffffffffffffffffffffff168173ffffffffffffffffffffffffffffffffffffffff1603610b58576040517f08c379a0000000000000000000000000000000000000000000000000000000008152600401610b4f90612a75565b60405180910390fd5b80915050919050565b600381565b60008073ffffffffffffffffffffffffffffffffffffffff168273ffffffffffffffffffffffffffffffffffffffff1603610bd6576040517f08c379a0000000000000000000000000000000000000000000000000000000008152600401610bcd90612b07565b60405180910390fd5b600360008373ffffffffffffffffffffffffffffffffffffffff1673ffffffffffffffffffffffffffffffffffffffff168152602001908152602001600020549050919050565b600181565b600080600090506000610c33610a84565b905060005b6003811015610cba57828510158015610c725750818160038110610c5f57610c5e612b27565b5b602002015183610c6f9190612b85565b85105b15610c8257809350505050610cbe565b818160038110610c9557610c94612b27565b5b602002015183610ca59190612b85565b92508080610cb290612bdb565b915050610c38565b5050505b919050565b7f000000000000000000000000000000000000000000000000000000000000000081565b606060018054610cf690612784565b80601f0160208091040260200160405190810160405280929190818152602001828054610d2290612784565b8015610d6f5780601f10610d4457610100808354040283529160200191610d6f565b820191906000526020600020905b815481529060010190602001808311610d5257829003601f168201915b5050505050905090565b610d8b610d84611119565b838361161c565b5050565b610da0610d9a611119565b83611321565b610ddf576040517f08c379a0000000000000000000000000000000000000000000000000000000008152600401610dd690612a09565b60405180910390fd5b610deb84848484611788565b50505050565b6060610dfc826110ce565b6000600660008481526020019081526020016000208054610e1c90612784565b80601f0160208091040260200160405190810160405280929190818152602001828054610e4890612784565b8015610e955780601f10610e6a57610100808354040283529160200191610e95565b820191906000526020600020905b815481529060010190602001808311610e7857829003601f168201915b505050505090506000610ea66117e4565b90506000815103610ebb578192505050610efe565b600082511115610ef0578082604051602001610ed8929190612c5f565b60405160208183030381529060405292505050610efe565b610ef9846117fb565b925050505b919050565b7f000000000000000000000000000000000000000000000000000000000000000081565b6103e881565b60088160038110610f3d57600080fd5b016000915090508054610f4f90612784565b80601f0160208091040260200160405190810160405280929190818152602001828054610f7b90612784565b8015610fc85780601f10610f9d57610100808354040283529160200191610fc8565b820191906000526020600020905b815481529060010190602001808311610fab57829003601f168201915b505050505081565b6000600560008473ffffffffffffffffffffffffffffffffffffffff1673ffffffffffffffffffffffffffffffffffffffff16815260200190815260200160002060008373ffffffffffffffffffffffffffffffffffffffff1673ffffffffffffffffffffffffffffffffffffffff16815260200190815260200160002060009054906101000a900460ff16905092915050565b60007f01ffc9a7000000000000000000000000000000000000000000000000000000007bffffffffffffffffffffffffffffffffffffffffffffffffffffffff1916827bffffffffffffffffffffffffffffffffffffffffffffffffffffffff1916149050919050565b6110d781611863565b611116576040517f08c379a000000000000000000000000000000000000000000000000000000000815260040161110d90612a75565b60405180910390fd5b50565b600033905090565b816004600083815260200190815260200160002060006101000a81548173ffffffffffffffffffffffffffffffffffffffff021916908373ffffffffffffffffffffffffffffffffffffffff160217905550808273ffffffffffffffffffffffffffffffffffffffff1661119483610ab0565b73ffffffffffffffffffffffffffffffffffffffff167f8c5be1e5ebec7d5bd14f71427d1e84f3dd0314c0f7b2291e5b200ac8c7c3b92560405160405180910390a45050565b60006007600084815260200190815260200160002060009054906101000a900473ffffffffffffffffffffffffffffffffffffffff1690506000600b5490506001600b546112289190612b85565b600b8190555060006103e88460008151811061124757611246612b27565b5b60200260200101516112599190612cb2565b9050600061126682610c22565b905061127284846118cf565b611319836008836003811061128a57611289612b27565b5b01805461129690612784565b80601f01602080910402602001604051908101604052809291908181526020018280546112c290612784565b801561130f5780601f106112e45761010080835404028352916020019161130f565b820191906000526020600020905b8154815290600101906020018083116112f257829003601f168201915b50505050506118ed565b505050505050565b60008061132d83610ab0565b90508073ffffffffffffffffffffffffffffffffffffffff168473ffffffffffffffffffffffffffffffffffffffff16148061136f575061136e8185610fd0565b5b806113ad57508373ffffffffffffffffffffffffffffffffffffffff166113958461065e565b73ffffffffffffffffffffffffffffffffffffffff16145b91505092915050565b8273ffffffffffffffffffffffffffffffffffffffff166113d682610ab0565b73ffffffffffffffffffffffffffffffffffffffff161461142c576040517f08c379a000000000000000000000000000000000000000000000000000000000815260040161142390612d55565b60405180910390fd5b600073ffffffffffffffffffffffffffffffffffffffff168273ffffffffffffffffffffffffffffffffffffffff160361149b576040517f08c379a000000000000000000000000000000000000000000000000000000000815260040161149290612de7565b60405180910390fd5b6114a683838361195a565b6114b1600082611121565b6001600360008573ffffffffffffffffffffffffffffffffffffffff1673ffffffffffffffffffffffffffffffffffffffff16815260200190815260200160002060008282546115019190612e07565b925050819055506001600360008473ffffffffffffffffffffffffffffffffffffffff1673ffffffffffffffffffffffffffffffffffffffff16815260200190815260200160002060008282546115589190612b85565b92505081905550816002600083815260200190815260200160002060006101000a81548173ffffffffffffffffffffffffffffffffffffffff021916908373ffffffffffffffffffffffffffffffffffffffff160217905550808273ffffffffffffffffffffffffffffffffffffffff168473ffffffffffffffffffffffffffffffffffffffff167fddf252ad1be2c89b69c2b068fc378daa952ba7f163c4a11628f55a4df523b3ef60405160405180910390a461161783838361195f565b505050565b8173ffffffffffffffffffffffffffffffffffffffff168373ffffffffffffffffffffffffffffffffffffffff160361168a576040517f08c379a000000000000000000000000000000000000000000000000000000000815260040161168190612e87565b60405180910390fd5b80600560008573ffffffffffffffffffffffffffffffffffffffff1673ffffffffffffffffffffffffffffffffffffffff16815260200190815260200160002060008473ffffffffffffffffffffffffffffffffffffffff1673ffffffffffffffffffffffffffffffffffffffff16815260200190815260200160002060006101000a81548160ff0219169083151502179055508173ffffffffffffffffffffffffffffffffffffffff168373ffffffffffffffffffffffffffffffffffffffff167f17307eab39ab6107e8899845ad3d59bd9653f200f220920489ca2b5937696c318360405161177b9190611f78565b60405180910390a3505050565b6117938484846113b6565b61179f84848484611964565b6117de576040517f08c379a00000000000000000000000000000000000000000000000000000000081526004016117d590612f19565b60405180910390fd5b50505050565b606060405180602001604052806000815250905090565b6060611806826110ce565b60006118106117e4565b90506000815111611830576040518060200160405280600081525061185b565b8061183a84611aeb565b60405160200161184b929190612c5f565b6040516020818303038152906040525b915050919050565b60008073ffffffffffffffffffffffffffffffffffffffff166002600084815260200190815260200160002060009054906101000a900473ffffffffffffffffffffffffffffffffffffffff1673ffffffffffffffffffffffffffffffffffffffff1614159050919050565b6118e9828260405180602001604052806000815250611c4b565b5050565b6118f682611863565b611935576040517f08c379a000000000000000000000000000000000000000000000000000000000815260040161192c90612fab565b60405180910390fd5b806006600084815260200190815260200160002090816119559190613177565b505050565b505050565b505050565b60006119858473ffffffffffffffffffffffffffffffffffffffff16611ca6565b15611ade578373ffffffffffffffffffffffffffffffffffffffff1663150b7a026119ae611119565b8786866040518563ffffffff1660e01b81526004016119d0949392919061329e565b6020604051808303816000875af1925050508015611a0c57506040513d601f19601f82011682018060405250810190611a0991906132ff565b60015b611a8e573d8060008114611a3c576040519150601f19603f3d011682016040523d82523d6000602084013e611a41565b606091505b506000815103611a86576040517f08c379a0000000000000000000000000000000000000000000000000000000008152600401611a7d90612f19565b60405180910390fd5b805181602001fd5b63150b7a0260e01b7bffffffffffffffffffffffffffffffffffffffffffffffffffffffff1916817bffffffffffffffffffffffffffffffffffffffffffffffffffffffff191614915050611ae3565b600190505b949350505050565b606060008203611b32576040518060400160405280600181526020017f30000000000000000000000000000000000000000000000000000000000000008152509050611c46565b600082905060005b60008214611b64578080611b4d90612bdb565b915050600a82611b5d919061332c565b9150611b3a565b60008167ffffffffffffffff811115611b8057611b7f6121a8565b5b6040519080825280601f01601f191660200182016040528015611bb25781602001600182028036833780820191505090505b5090505b60008514611c3f57600182611bcb9190612e07565b9150600a85611bda9190612cb2565b6030611be69190612b85565b60f81b818381518110611bfc57611bfb612b27565b5b60200101907effffffffffffffffffffffffffffffffffffffffffffffffffffffffffffff1916908160001a905350600a85611c38919061332c565b9450611bb6565b8093505050505b919050565b611c558383611cc9565b611c626000848484611964565b611ca1576040517f08c379a0000000000000000000000000000000000000000000000000000000008152600401611c9890612f19565b60405180910390fd5b505050565b6000808273ffffffffffffffffffffffffffffffffffffffff163b119050919050565b600073ffffffffffffffffffffffffffffffffffffffff168273ffffffffffffffffffffffffffffffffffffffff1603611d38576040517f08c379a0000000000000000000000000000000000000000000000000000000008152600401611d2f906133a9565b60405180910390fd5b611d4181611863565b15611d81576040517f08c379a0000000000000000000000000000000000000000000000000000000008152600401611d7890613415565b60405180910390fd5b611d8d6000838361195a565b6001600360008473ffffffffffffffffffffffffffffffffffffffff1673ffffffffffffffffffffffffffffffffffffffff1681526020019081526020016000206000828254611ddd9190612b85565b92505081905550816002600083815260200190815260200160002060006101000a81548173ffffffffffffffffffffffffffffffffffffffff021916908373ffffffffffffffffffffffffffffffffffffffff160217905550808273ffffffffffffffffffffffffffffffffffffffff16600073ffffffffffffffffffffffffffffffffffffffff167fddf252ad1be2c89b69c2b068fc378daa952ba7f163c4a11628f55a4df523b3ef60405160405180910390a4611e9e6000838361195f565b5050565b6040518060600160405280600390602082028036833780820191505090505090565b6000604051905090565b600080fd5b600080fd5b60007fffffffff0000000000000000000000000000000000000000000000000000000082169050919050565b611f0d81611ed8565b8114611f1857600080fd5b50565b600081359050611f2a81611f04565b92915050565b600060208284031215611f4657611f45611ece565b5b6000611f5484828501611f1b565b91505092915050565b60008115159050919050565b611f7281611f5d565b82525050565b6000602082019050611f8d6000830184611f69565b92915050565b600081519050919050565b600082825260208201905092915050565b60005b83811015611fcd578082015181840152602081019050611fb2565b83811115611fdc576000848401525b50505050565b6000601f19601f8301169050919050565b6000611ffe82611f93565b6120088185611f9e565b9350612018818560208601611faf565b61202181611fe2565b840191505092915050565b600060208201905081810360008301526120468184611ff3565b905092915050565b6000819050919050565b6120618161204e565b811461206c57600080fd5b50565b60008135905061207e81612058565b92915050565b60006020828403121561209a57612099611ece565b5b60006120a88482850161206f565b91505092915050565b600073ffffffffffffffffffffffffffffffffffffffff82169050919050565b60006120dc826120b1565b9050919050565b6120ec816120d1565b82525050565b600060208201905061210760008301846120e3565b92915050565b612116816120d1565b811461212157600080fd5b50565b6000813590506121338161210d565b92915050565b600080604083850312156121505761214f611ece565b5b600061215e85828601612124565b925050602061216f8582860161206f565b9150509250929050565b6121828161204e565b82525050565b600060208201905061219d6000830184612179565b92915050565b600080fd5b7f4e487b7100000000000000000000000000000000000000000000000000000000600052604160045260246000fd5b6121e082611fe2565b810181811067ffffffffffffffff821117156121ff576121fe6121a8565b5b80604052505050565b6000612212611ec4565b905061221e82826121d7565b919050565b600067ffffffffffffffff82111561223e5761223d6121a8565b5b602082029050602081019050919050565b600080fd5b600061226761226284612223565b612208565b9050808382526020820190506020840283018581111561228a5761228961224f565b5b835b818110156122b3578061229f888261206f565b84526020840193505060208101905061228c565b5050509392505050565b600082601f8301126122d2576122d16121a3565b5b81356122e2848260208601612254565b91505092915050565b6000806040838503121561230257612301611ece565b5b60006123108582860161206f565b925050602083013567ffffffffffffffff81111561233157612330611ed3565b5b61233d858286016122bd565b9150509250929050565b6000806000606084860312156123605761235f611ece565b5b600061236e86828701612124565b935050602061237f86828701612124565b92505060406123908682870161206f565b9150509250925092565b600067ffffffffffffffff82169050919050565b6123b78161239a565b82525050565b60006020820190506123d260008301846123ae565b92915050565b600060039050919050565b600081905092915050565b6000819050919050565b6124018161204e565b82525050565b600061241383836123f8565b60208301905092915050565b6000602082019050919050565b612435816123d8565b61243f81846123e3565b925061244a826123ee565b8060005b8381101561247b5781516124628782612407565b965061246d8361241f565b92505060018101905061244e565b505050505050565b6000606082019050612498600083018461242c565b92915050565b600061ffff82169050919050565b6124b58161249e565b82525050565b60006020820190506124d060008301846124ac565b92915050565b6000602082840312156124ec576124eb611ece565b5b60006124fa84828501612124565b91505092915050565b600063ffffffff82169050919050565b61251c81612503565b82525050565b60006020820190506125376000830184612513565b92915050565b6000819050919050565b6125508161253d565b82525050565b600060208201905061256b6000830184612547565b92915050565b61257a81611f5d565b811461258557600080fd5b50565b60008135905061259781612571565b92915050565b600080604083850312156125b4576125b3611ece565b5b60006125c285828601612124565b92505060206125d385828601612588565b9150509250929050565b600080fd5b600067ffffffffffffffff8211156125fd576125fc6121a8565b5b61260682611fe2565b9050602081019050919050565b82818337600083830152505050565b6000612635612630846125e2565b612208565b905082815260208101848484011115612651576126506125dd565b5b61265c848285612613565b509392505050565b600082601f830112612679576126786121a3565b5b8135612689848260208601612622565b91505092915050565b600080600080608085870312156126ac576126ab611ece565b5b60006126ba87828801612124565b94505060206126cb87828801612124565b93505060406126dc8782880161206f565b925050606085013567ffffffffffffffff8111156126fd576126fc611ed3565b5b61270987828801612664565b91505092959194509250565b6000806040838503121561272c5761272b611ece565b5b600061273a85828601612124565b925050602061274b85828601612124565b9150509250929050565b7f4e487b7100000000000000000000000000000000000000000000000000000000600052602260045260246000fd5b6000600282049050600182168061279c57607f821691505b6020821081036127af576127ae612755565b5b50919050565b7f4552433732313a20617070726f76616c20746f2063757272656e74206f776e6560008201527f7200000000000000000000000000000000000000000000000000000000000000602082015250565b6000612811602183611f9e565b915061281c826127b5565b604082019050919050565b6000602082019050818103600083015261284081612804565b9050919050565b7f4552433732313a20617070726f76652063616c6c6572206973206e6f7420746f60008201527f6b656e206f776e6572206e6f7220617070726f76656420666f7220616c6c0000602082015250565b60006128a3603e83611f9e565b91506128ae82612847565b604082019050919050565b600060208201905081810360008301526128d281612896565b9050919050565b600060a0820190506128ee6000830188612547565b6128fb60208301876123ae565b61290860408301866124ac565b6129156060830185612513565b6129226080830184612513565b9695505050505050565b60008151905061293b81612058565b92915050565b60006020828403121561295757612956611ece565b5b60006129658482850161292c565b91505092915050565b600060408201905061298360008301856120e3565b61299060208301846120e3565b9392505050565b7f4552433732313a2063616c6c6572206973206e6f7420746f6b656e206f776e6560008201527f72206e6f7220617070726f766564000000000000000000000000000000000000602082015250565b60006129f3602e83611f9e565b91506129fe82612997565b604082019050919050565b60006020820190508181036000830152612a22816129e6565b9050919050565b7f4552433732313a20696e76616c696420746f6b656e2049440000000000000000600082015250565b6000612a5f601883611f9e565b9150612a6a82612a29565b602082019050919050565b60006020820190508181036000830152612a8e81612a52565b9050919050565b7f4552433732313a2061646472657373207a65726f206973206e6f74206120766160008201527f6c6964206f776e65720000000000000000000000000000000000000000000000602082015250565b6000612af1602983611f9e565b9150612afc82612a95565b604082019050919050565b60006020820190508181036000830152612b2081612ae4565b9050919050565b7f4e487b7100000000000000000000000000000000000000000000000000000000600052603260045260246000fd5b7f4e487b7100000000000000000000000000000000000000000000000000000000600052601160045260246000fd5b6000612b908261204e565b9150612b9b8361204e565b9250827fffffffffffffffffffffffffffffffffffffffffffffffffffffffffffffffff03821115612bd057612bcf612b56565b5b828201905092915050565b6000612be68261204e565b91507fffffffffffffffffffffffffffffffffffffffffffffffffffffffffffffffff8203612c1857612c17612b56565b5b600182019050919050565b600081905092915050565b6000612c3982611f93565b612c438185612c23565b9350612c53818560208601611faf565b80840191505092915050565b6000612c6b8285612c2e565b9150612c778284612c2e565b91508190509392505050565b7f4e487b7100000000000000000000000000000000000000000000000000000000600052601260045260246000fd5b6000612cbd8261204e565b9150612cc88361204e565b925082612cd857612cd7612c83565b5b828206905092915050565b7f4552433732313a207472616e736665722066726f6d20696e636f72726563742060008201527f6f776e6572000000000000000000000000000000000000000000000000000000602082015250565b6000612d3f602583611f9e565b9150612d4a82612ce3565b604082019050919050565b60006020820190508181036000830152612d6e81612d32565b9050919050565b7f4552433732313a207472616e7366657220746f20746865207a65726f2061646460008201527f7265737300000000000000000000000000000000000000000000000000000000602082015250565b6000612dd1602483611f9e565b9150612ddc82612d75565b604082019050919050565b60006020820190508181036000830152612e0081612dc4565b9050919050565b6000612e128261204e565b9150612e1d8361204e565b925082821015612e3057612e2f612b56565b5b828203905092915050565b7f4552433732313a20617070726f766520746f2063616c6c657200000000000000600082015250565b6000612e71601983611f9e565b9150612e7c82612e3b565b602082019050919050565b60006020820190508181036000830152612ea081612e64565b9050919050565b7f4552433732313a207472616e7366657220746f206e6f6e20455243373231526560008201527f63656976657220696d706c656d656e7465720000000000000000000000000000602082015250565b6000612f03603283611f9e565b9150612f0e82612ea7565b604082019050919050565b60006020820190508181036000830152612f3281612ef6565b9050919050565b7f45524337323155524953746f726167653a2055524920736574206f66206e6f6e60008201527f6578697374656e7420746f6b656e000000000000000000000000000000000000602082015250565b6000612f95602e83611f9e565b9150612fa082612f39565b604082019050919050565b60006020820190508181036000830152612fc481612f88565b9050919050565b60008190508160005260206000209050919050565b60006020601f8301049050919050565b600082821b905092915050565b60006008830261302d7fffffffffffffffffffffffffffffffffffffffffffffffffffffffffffffffff82612ff0565b6130378683612ff0565b95508019841693508086168417925050509392505050565b6000819050919050565b600061307461306f61306a8461204e565b61304f565b61204e565b9050919050565b6000819050919050565b61308e83613059565b6130a261309a8261307b565b848454612ffd565b825550505050565b600090565b6130b76130aa565b6130c2818484613085565b505050565b5b818110156130e6576130db6000826130af565b6001810190506130c8565b5050565b601f82111561312b576130fc81612fcb565b61310584612fe0565b81016020851015613114578190505b61312861312085612fe0565b8301826130c7565b50505b505050565b600082821c905092915050565b600061314e60001984600802613130565b1980831691505092915050565b6000613167838361313d565b9150826002028217905092915050565b61318082611f93565b67ffffffffffffffff811115613199576131986121a8565b5b6131a38254612784565b6131ae8282856130ea565b600060209050601f8311600181146131e157600084156131cf578287015190505b6131d9858261315b565b865550613241565b601f1984166131ef86612fcb565b60005b82811015613217578489015182556001820191506020850194506020810190506131f2565b868310156132345784890151613230601f89168261313d565b8355505b6001600288020188555050505b505050505050565b600081519050919050565b600082825260208201905092915050565b600061327082613249565b61327a8185613254565b935061328a818560208601611faf565b61329381611fe2565b840191505092915050565b60006080820190506132b360008301876120e3565b6132c060208301866120e3565b6132cd6040830185612179565b81810360608301526132df8184613265565b905095945050505050565b6000815190506132f981611f04565b92915050565b60006020828403121561331557613314611ece565b5b6000613323848285016132ea565b91505092915050565b60006133378261204e565b91506133428361204e565b92508261335257613351612c83565b5b828204905092915050565b7f4552433732313a206d696e7420746f20746865207a65726f2061646472657373600082015250565b6000613393602083611f9e565b915061339e8261335d565b602082019050919050565b600060208201905081810360008301526133c281613386565b9050919050565b7f4552433732313a20746f6b656e20616c7265616479206d696e74656400000000600082015250565b60006133ff601c83611f9e565b915061340a826133c9565b602082019050919050565b6000602082019050818103600083015261342e816133f2565b905091905056fea264697066735822122001df5fb5c8e42c6bc0ab44eecf73b3827ff0706e93a180c0719eb7c62180bc7a64736f6c634300080f0033",
  "devdoc": {
    "author": "mektigboy",
    "details": "This contract utilizes Chainlink VRF v2 for randomness. URI points to IPFS. Imports contracts from OpenZeppelin.",
    "kind": "dev",
    "methods": {
      "approve(address,uint256)": {
        "details": "See {IERC721-approve}."
      },
      "balanceOf(address)": {
        "details": "See {IERC721-balanceOf}."
      },
      "getApproved(uint256)": {
        "details": "See {IERC721-getApproved}."
      },
      "isApprovedForAll(address,address)": {
        "details": "See {IERC721-isApprovedForAll}."
      },
      "name()": {
        "details": "See {IERC721Metadata-name}."
      },
      "ownerOf(uint256)": {
        "details": "See {IERC721-ownerOf}."
      },
      "safeTransferFrom(address,address,uint256)": {
        "details": "See {IERC721-safeTransferFrom}."
      },
      "safeTransferFrom(address,address,uint256,bytes)": {
        "details": "See {IERC721-safeTransferFrom}."
      },
      "setApprovalForAll(address,bool)": {
        "details": "See {IERC721-setApprovalForAll}."
      },
      "supportsInterface(bytes4)": {
        "details": "See {IERC165-supportsInterface}."
      },
      "symbol()": {
        "details": "See {IERC721Metadata-symbol}."
      },
      "tokenURI(uint256)": {
        "details": "See {IERC721Metadata-tokenURI}."
      },
      "transferFrom(address,address,uint256)": {
        "details": "See {IERC721-transferFrom}."
      }
    },
    "title": "Random IPFS NFT",
    "version": 1
  },
  "userdoc": {
    "kind": "user",
    "methods": {},
    "notice": "Generate NFTs with randomness, and store them in a decentralized way.",
    "version": 1
  },
  "storageLayout": {
    "storage": [
      {
        "astId": 179,
        "contract": "contracts/Random.sol:Random",
        "label": "_name",
        "offset": 0,
        "slot": "0",
        "type": "t_string_storage"
      },
      {
        "astId": 181,
        "contract": "contracts/Random.sol:Random",
        "label": "_symbol",
        "offset": 0,
        "slot": "1",
        "type": "t_string_storage"
      },
      {
        "astId": 185,
        "contract": "contracts/Random.sol:Random",
        "label": "_owners",
        "offset": 0,
        "slot": "2",
        "type": "t_mapping(t_uint256,t_address)"
      },
      {
        "astId": 189,
        "contract": "contracts/Random.sol:Random",
        "label": "_balances",
        "offset": 0,
        "slot": "3",
        "type": "t_mapping(t_address,t_uint256)"
      },
      {
        "astId": 193,
        "contract": "contracts/Random.sol:Random",
        "label": "_tokenApprovals",
        "offset": 0,
        "slot": "4",
        "type": "t_mapping(t_uint256,t_address)"
      },
      {
        "astId": 199,
        "contract": "contracts/Random.sol:Random",
        "label": "_operatorApprovals",
        "offset": 0,
        "slot": "5",
        "type": "t_mapping(t_address,t_mapping(t_address,t_bool))"
      },
      {
        "astId": 1167,
        "contract": "contracts/Random.sol:Random",
        "label": "_tokenURIs",
        "offset": 0,
        "slot": "6",
        "type": "t_mapping(t_uint256,t_string_storage)"
      },
      {
        "astId": 1917,
        "contract": "contracts/Random.sol:Random",
        "label": "s_requestIdToSender",
        "offset": 0,
        "slot": "7",
        "type": "t_mapping(t_uint256,t_address)"
      },
      {
        "astId": 1921,
        "contract": "contracts/Random.sol:Random",
        "label": "s_tokenUris",
        "offset": 0,
        "slot": "8",
        "type": "t_array(t_string_storage)3_storage"
      },
      {
        "astId": 1923,
        "contract": "contracts/Random.sol:Random",
        "label": "s_tokenCounter",
        "offset": 0,
        "slot": "11",
        "type": "t_uint256"
      }
    ],
    "types": {
      "t_address": {
        "encoding": "inplace",
        "label": "address",
        "numberOfBytes": "20"
      },
      "t_array(t_string_storage)3_storage": {
        "base": "t_string_storage",
        "encoding": "inplace",
        "label": "string[3]",
        "numberOfBytes": "96"
      },
      "t_bool": {
        "encoding": "inplace",
        "label": "bool",
        "numberOfBytes": "1"
      },
      "t_mapping(t_address,t_bool)": {
        "encoding": "mapping",
        "key": "t_address",
        "label": "mapping(address => bool)",
        "numberOfBytes": "32",
        "value": "t_bool"
      },
      "t_mapping(t_address,t_mapping(t_address,t_bool))": {
        "encoding": "mapping",
        "key": "t_address",
        "label": "mapping(address => mapping(address => bool))",
        "numberOfBytes": "32",
        "value": "t_mapping(t_address,t_bool)"
      },
      "t_mapping(t_address,t_uint256)": {
        "encoding": "mapping",
        "key": "t_address",
        "label": "mapping(address => uint256)",
        "numberOfBytes": "32",
        "value": "t_uint256"
      },
      "t_mapping(t_uint256,t_address)": {
        "encoding": "mapping",
        "key": "t_uint256",
        "label": "mapping(uint256 => address)",
        "numberOfBytes": "32",
        "value": "t_address"
      },
      "t_mapping(t_uint256,t_string_storage)": {
        "encoding": "mapping",
        "key": "t_uint256",
        "label": "mapping(uint256 => string)",
        "numberOfBytes": "32",
        "value": "t_string_storage"
      },
      "t_string_storage": {
        "encoding": "bytes",
        "label": "string",
        "numberOfBytes": "32"
      },
      "t_uint256": {
        "encoding": "inplace",
        "label": "uint256",
        "numberOfBytes": "32"
      }
    }
  }
}